{
  "_format": "hh-sol-artifact-1",
  "contractName": "Dappazon",
  "sourceName": "contracts/Dappazon.sol",
  "abi": [
    {
      "inputs": [],
      "stateMutability": "nonpayable",
      "type": "constructor"
    },
    {
      "anonymous": false,
      "inputs": [
        {
          "indexed": false,
          "internalType": "string",
          "name": "name",
          "type": "string"
        },
        {
          "indexed": false,
          "internalType": "uint256",
          "name": "cost",
          "type": "uint256"
        },
        {
          "indexed": false,
          "internalType": "string",
          "name": "doe",
          "type": "string"
        }
      ],
      "name": "List",
      "type": "event"
    },
    {
      "inputs": [
        {
          "internalType": "uint256",
          "name": "",
          "type": "uint256"
        }
      ],
      "name": "items",
      "outputs": [
        {
          "internalType": "uint256",
          "name": "id",
          "type": "uint256"
        },
        {
          "internalType": "string",
          "name": "name",
          "type": "string"
        },
        {
          "internalType": "string",
          "name": "doe",
          "type": "string"
        },
        {
          "internalType": "string",
          "name": "mdate",
          "type": "string"
        },
        {
          "internalType": "uint256",
          "name": "cost",
          "type": "uint256"
        }
      ],
      "stateMutability": "view",
      "type": "function"
    },
    {
      "inputs": [
        {
          "internalType": "uint256",
          "name": "_id",
          "type": "uint256"
        },
        {
          "internalType": "string",
          "name": "_name",
          "type": "string"
        },
        {
          "internalType": "string",
          "name": "_doe",
          "type": "string"
        },
        {
          "internalType": "string",
          "name": "_mdate",
          "type": "string"
        },
        {
          "internalType": "uint256",
          "name": "_cost",
          "type": "uint256"
        }
      ],
      "name": "list",
      "outputs": [],
      "stateMutability": "nonpayable",
      "type": "function"
    },
    {
      "inputs": [],
      "name": "owner",
      "outputs": [
        {
          "internalType": "address",
          "name": "",
          "type": "address"
        }
      ],
      "stateMutability": "view",
      "type": "function"
    }
  ],
  "bytecode": "0x608060405234801561001057600080fd5b50336000806101000a81548173ffffffffffffffffffffffffffffffffffffffff021916908373ffffffffffffffffffffffffffffffffffffffff160217905550610954806100606000396000f3fe608060405234801561001057600080fd5b50600436106100415760003560e01c80638da5cb5b14610046578063bfb231d214610064578063cc40e29b14610098575b600080fd5b61004e6100b4565b60405161005b91906104d2565b60405180910390f35b61007e60048036038101906100799190610537565b6100d8565b60405161008f95949392919061060c565b60405180910390f35b6100b260048036038101906100ad91906107a9565b6102a6565b005b60008054906101000a900473ffffffffffffffffffffffffffffffffffffffff1681565b6001602052806000526040600020600091509050806000015490806001018054610101906108a7565b80601f016020809104026020016040519081016040528092919081815260200182805461012d906108a7565b801561017a5780601f1061014f5761010080835404028352916020019161017a565b820191906000526020600020905b81548152906001019060200180831161015d57829003601f168201915b50505050509080600201805461018f906108a7565b80601f01602080910402602001604051908101604052809291908181526020018280546101bb906108a7565b80156102085780601f106101dd57610100808354040283529160200191610208565b820191906000526020600020905b8154815290600101906020018083116101eb57829003601f168201915b50505050509080600301805461021d906108a7565b80601f0160208091040260200160405190810160405280929190818152602001828054610249906108a7565b80156102965780601f1061026b57610100808354040283529160200191610296565b820191906000526020600020905b81548152906001019060200180831161027957829003601f168201915b5050505050908060040154905085565b60008054906101000a900473ffffffffffffffffffffffffffffffffffffffff1673ffffffffffffffffffffffffffffffffffffffff163373ffffffffffffffffffffffffffffffffffffffff16146102fe57600080fd5b60006040518060a0016040528087815260200186815260200185815260200184815260200183815250905080600160008881526020019081526020016000206000820151816000015560208201518160010190805190602001906103639291906103ee565b5060408201518160020190805190602001906103809291906103ee565b50606082015181600301908051906020019061039d9291906103ee565b50608082015181600401559050507fa26ef9e9fe4201f25e9cbba4ac57a089d600016d2bfbba5c1b09812bada31d858583866040516103de939291906108d9565b60405180910390a1505050505050565b8280546103fa906108a7565b90600052602060002090601f01602090048101928261041c5760008555610463565b82601f1061043557805160ff1916838001178555610463565b82800160010185558215610463579182015b82811115610462578251825591602001919060010190610447565b5b5090506104709190610474565b5090565b5b8082111561048d576000816000905550600101610475565b5090565b600073ffffffffffffffffffffffffffffffffffffffff82169050919050565b60006104bc82610491565b9050919050565b6104cc816104b1565b82525050565b60006020820190506104e760008301846104c3565b92915050565b6000604051905090565b600080fd5b600080fd5b6000819050919050565b61051481610501565b811461051f57600080fd5b50565b6000813590506105318161050b565b92915050565b60006020828403121561054d5761054c6104f7565b5b600061055b84828501610522565b91505092915050565b61056d81610501565b82525050565b600081519050919050565b600082825260208201905092915050565b60005b838110156105ad578082015181840152602081019050610592565b838111156105bc576000848401525b50505050565b6000601f19601f8301169050919050565b60006105de82610573565b6105e8818561057e565b93506105f881856020860161058f565b610601816105c2565b840191505092915050565b600060a0820190506106216000830188610564565b818103602083015261063381876105d3565b9050818103604083015261064781866105d3565b9050818103606083015261065b81856105d3565b905061066a6080830184610564565b9695505050505050565b600080fd5b600080fd5b7f4e487b7100000000000000000000000000000000000000000000000000000000600052604160045260246000fd5b6106b6826105c2565b810181811067ffffffffffffffff821117156106d5576106d461067e565b5b80604052505050565b60006106e86104ed565b90506106f482826106ad565b919050565b600067ffffffffffffffff8211156107145761071361067e565b5b61071d826105c2565b9050602081019050919050565b82818337600083830152505050565b600061074c610747846106f9565b6106de565b90508281526020810184848401111561076857610767610679565b5b61077384828561072a565b509392505050565b600082601f8301126107905761078f610674565b5b81356107a0848260208601610739565b91505092915050565b600080600080600060a086880312156107c5576107c46104f7565b5b60006107d388828901610522565b955050602086013567ffffffffffffffff8111156107f4576107f36104fc565b5b6108008882890161077b565b945050604086013567ffffffffffffffff811115610821576108206104fc565b5b61082d8882890161077b565b935050606086013567ffffffffffffffff81111561084e5761084d6104fc565b5b61085a8882890161077b565b925050608061086b88828901610522565b9150509295509295909350565b7f4e487b7100000000000000000000000000000000000000000000000000000000600052602260045260246000fd5b600060028204905060018216806108bf57607f821691505b602082108114156108d3576108d2610878565b5b50919050565b600060608201905081810360008301526108f381866105d3565b90506109026020830185610564565b818103604083015261091481846105d3565b905094935050505056fea26469706673582212206580d05bd6f43f11a977585ae7bd867ee79ee80a8266427a60784826503ac9b864736f6c63430008090033",
  "linkReferences": {},
  "deployedLinkReferences": {}
}